{
  "contractName": "MessageAuthentication",
  "abi": [
    {
      "anonymous": false,
      "inputs": [
        {
          "indexed": false,
          "internalType": "bytes32",
          "name": "hash",
          "type": "bytes32"
        }
      ],
      "name": "MessageStored",
      "type": "event"
    },
    {
      "inputs": [
        {
          "internalType": "bytes32",
          "name": "",
          "type": "bytes32"
        }
      ],
      "name": "messageHashes",
      "outputs": [
        {
          "internalType": "bool",
          "name": "",
          "type": "bool"
        }
      ],
      "stateMutability": "view",
      "type": "function",
      "constant": true
    },
    {
      "inputs": [
        {
          "internalType": "bytes32",
          "name": "hash",
          "type": "bytes32"
        }
      ],
      "name": "storeMessage",
      "outputs": [],
      "stateMutability": "nonpayable",
      "type": "function"
    },
    {
      "inputs": [],
      "name": "getMessageHash",
      "outputs": [
        {
          "internalType": "bytes32",
          "name": "",
          "type": "bytes32"
        }
      ],
      "stateMutability": "view",
      "type": "function",
      "constant": true
    }
  ],
  "bytecode": "0x608060405234801561001057600080fd5b506102ba806100206000396000f3fe608060405234801561001057600080fd5b50600436106100415760003560e01c80630a4d6c20146100465780633758b996146100625780637080f77114610080575b600080fd5b610060600480360381019061005b91906101a0565b6100b0565b005b61006a610115565b60405161007791906101dc565b60405180910390f35b61009a600480360381019061009591906101a0565b610145565b6040516100a79190610212565b60405180910390f35b600160008083815260200190815260200160002060006101000a81548160ff0219169083151502179055507f8e673d481e51598b34785621b77d77132636a4c295cfbb2d29662245879468ee8160405161010a91906101dc565b60405180910390a150565b6000424460405160200161012a929190610258565b60405160208183030381529060405280519060200120905090565b60006020528060005260406000206000915054906101000a900460ff1681565b600080fd5b6000819050919050565b61017d8161016a565b811461018857600080fd5b50565b60008135905061019a81610174565b92915050565b6000602082840312156101b6576101b5610165565b5b60006101c48482850161018b565b91505092915050565b6101d68161016a565b82525050565b60006020820190506101f160008301846101cd565b92915050565b60008115159050919050565b61020c816101f7565b82525050565b60006020820190506102276000830184610203565b92915050565b6000819050919050565b6000819050919050565b61025261024d8261022d565b610237565b82525050565b60006102648285610241565b6020820191506102748284610241565b602082019150819050939250505056fea2646970667358221220301eb7b6c1a7f9969604ec492ad6e576e5686bedced16021c1da0367332357e264736f6c634300080d0033",
  "immutableReferences": {},
  "source": "// SPDX-License-Identifier: UNKNOWN \r\npragma solidity ^0.8.0;\r\n\r\ncontract MessageAuthentication {\r\n    mapping(bytes32 => bool) public messageHashes;\r\n\r\n    event MessageStored(bytes32 hash);\r\n\r\n    function storeMessage(bytes32 hash) public {\r\n        messageHashes[hash] = true;\r\n        emit MessageStored(hash);\r\n    }\r\n\r\n    function getMessageHash() public view returns (bytes32) {\r\n        return keccak256(abi.encodePacked(block.timestamp, block.difficulty));\r\n    }\r\n}\r\n",
  "sourcePath": "C:\\Users\\samyu\\message-authentication\\contracts\\message_authentication.sol",
  "compiler": {
    "name": "solc",
    "version": "0.8.13+commit.abaa5c0e.Emscripten.clang"
  },
  "schemaVersion": "3.4.16",
  "updatedAt": "2023-10-10T14:50:04.715Z",
  "networkType": "ethereum",
  "devdoc": {
    "kind": "dev",
    "methods": {},
    "version": 1
  },
  "userdoc": {
    "kind": "user",
    "methods": {},
    "version": 1
  }
}